:10000000F8FF0220990100006909000021090000A1
:100010002109000021090000210900002109000038
:1000200021090000210900002109000069090000E0
:100030006909000021090000D5200000D921000035
:1000400069090000690900006909000069090000E8
:1000500069090000690900006909000069090000D8
:1000600069090000690900006909000069090000C8
:1000700069090000690900006909000069090000B8
:1000800069090000690900006909000069090000A8
:100090006909000069090000690900006909000098
:1000A0006909000069090000690900006909000088
:1000B00069090000690900006909000001230000C6
:1000C000690900002D24000069090000592500007D
:1000D0006909000051260000690900006909000053
:1000E0006909000069090000690900006909000048
:1000F0006909000069090000690900006909000038
:100100006909000069090000690900006909000027
:1001100071070000E10F0000690900006909000093
:100120006909000069090000690900006909000007
:1001300069090000690900006909000069090000F7
:1001400069090000690900004927000069090000E9
:1001500041280000690900006909000069090000E0
:1001600069090000690900006909000069090000C7
:1001700069090000690900006909000069090000B7
:1001800069090000690900006909000069090000A7
:100190006909000069090000584B4CF2205210B563
:1001A0001A804DF628121A8000BF00BF00F0E0FB55
:1001B000534B4FF030621A60524A9A60524ADA60EA
:1001C000524B4FF470021A60514A136813F4807353
:1001D00004D150490B604FF4A85313604E4B1A786A
:1001E000110703D51A7842F008021A704B4B4C499C
:1001F0002A221A704B4A4C4B8B4204D252F8040FFD
:1002000043F8040BF8E7494B494900228B4202D2DC
:1002100043F8042BFAE74749474A002352F82300E2
:1002200041F823000133662BF8D1444B444A802126
:1002300003F8011B9342FBD1424B3E4A1A60424BEA
:100240008A221A70A3F5805324225A70A0221A70B1
:100250009A799207FCD59A79D406FCD43B4A9379D3
:1002600003F00C03082B394BF9D103221A714622F3
:100270005A719A799006FCD5344A9179334B4906E4
:10028000FBD5334A4FF08271116009215160202261
:100290001A709A7902F00C020C2AFAD12D4B2E4AD0
:1002A0001A602E4B2E4A1A6000225A60072243F829
:1002B000042C2C4AC3F80C2D62B600F06BFC154BD5
:1002C0001B68DA0705D5284800F0F8FB274B284AB9
:1002D0001A60284B1B785B0609D5244C244B2268F6
:1002E0009A4204D1204800F0E9FB0023236002F089
:1002F00057FB00F043FB00F00BFBFEE70E20054030
:1003000030800440823F04000100002B88ED00E0B3
:1003100010D0034014D0034002D0074000E0074053
:10032000FC0FFF1F08360000F806FF1FFC0FFF1F21
:10033000DC14FF1F0002FF1F0000000000E400E0CB
:1003400056E400E008ED00E00050064000400640A2
:100350004480044004800440C010050014E000E024
:10036000BFD40100000020208B717E5C1CE00340A4
:10037000A5C3945A00F00740FFFFFFFFFFFFFFFFF8
:10038000FFFFFFFFFFFFFFFFFFFFFFFFFFFFFFFF7D
:10039000FFFFFFFFFFFFFFFFFFFFFFFFFFFFFFFF6D
:1003A000FFFFFFFFFFFFFFFFFFFFFFFFFFFFFFFF5D
:1003B000FFFFFFFFFFFFFFFFFFFFFFFFFFFFFFFF4D
:1003C000FFFFFFFFFFFFFFFFFFFFFFFFFFFFFFFF3D
:1003D000FFFFFFFFFFFFFFFFFFFFFFFFFFFFFFFF2D
:1003E000FFFFFFFFFFFFFFFFFFFFFFFFFFFFFFFF1D
:1003F000FFFFFFFFFFFFFFFFFFFFFFFFFFFFFFFF0D
:10040000FFFFFFFFFFFFFFFFFFFFFFFFDEF9FFFF23
:1004100010B5054C237833B9044B13B10448AFF33E
:1004200000800123237010BDFC0FFF1F000000009F
:100430000C360000084B10B51BB108490848AFF353
:1004400000800848036803B910BD074B002BFBD0A0
:10045000BDE81040184700BF000000000010FF1F5B
:100460000C360000FC0FFF1F0000000010B500213B
:10047000072000F03BFB0021082000F037FB0021A3
:10048000092000F033FB00210A2000F02FFB00219F
:100490000B2000F02BFB00210C2000F027FB00219B
:1004A0000C4800F05FF901210B4800F05BF90A24C9
:1004B00001210D2000F014FB642000F01DFB002141
:1004C0000D2000F00DFB642000F016FB013CEFD185
:1004D00010BD00BF3010FF1F3810FF1F10B52B4C90
:1004E0002B48112101F020FC204600F0B9F90C2125
:1004F000284801F019FC284B2046196800F000FA42
:10050000204600F0ADF90C21244801F00DFC244BED
:100510002046196800F0F4F9204600F0A1F90C21FA
:10052000204801F001FC204B2046196800F0E8F952
:10053000204600F095F90C211C4801F0F5FB1C4BFE
:100540002046196800F0DCF9204600F089F90C21FA
:10055000184801F0E9FB184B2046196800F0D0F963
:10056000204600F07DF90C21144801F0DDFB144B0E
:100570002046196800F0C4F9204600F071F94FF4E4
:100580007A70BDE8104000F0B7BA00BF0007FF1F47
:10059000F4320000083300001810FF1F1833000069
:1005A0001C10FF1F283300002010FF1F38330000ED
:1005B0002410FF1F483300002810FF1F583300008D
:1005C0002C10FF1F08B545F208220121072000F07A
:1005D00019FC174B45F2082218600121082000F091
:1005E00011FC144B45F2082218600121092000F08B
:1005F00009FC114B45F20822186001210A2000F085
:1006000001FC0E4B45F20822186001210B2000F07E
:10061000F9FB0B4B45F20822186001210C2000F079
:10062000F1FB084B1860BDE80840FFF757BF00BF5B
:100630001810FF1F1C10FF1F2010FF1F2410FF1F8A
:100640002810FF1F2C10FF1F08B5044800F00AF8FF
:100650000348BDE8084000F005B800BF3810FF1F90
:100660003010FF1F70B40F4E0023358803710C212A
:10067000012215424FEA42040AD00379013903F1FD
:100680000103A2B20371F4D1FF23037170BC704760
:1006900005490B88154323EA020235800A8070BCA5
:1006A000704700BF4810FF1F4410FF1FF8B50479C2
:1006B0000B2C01D92046F8BD0646CDB228460121B3
:1006C0001F46144600F012FA1B4832791B4B018872
:1006D0009D54012393400B43194903800B6819482B
:1006E000C4EB0414C7EB071745F2E47513F4800359
:1006F0003480778020F8125016D10A68124D1348C2
:10070000DFF85CE0124F134C42F480020A604FF6AF
:10071000FF722A601049CEF8003042F6A2752022FE
:100720003B600560016022700C4B4FF480121A6030
:1007300034792046F8BD00BF4410FF1F6410FF1F2E
:100740003C8004404C10FF1F0460034000600340E5
:100750000C60034034E400E0A22F010004E100E05B
:10076000086003404FF416634FF40872FFF79EBF12
:10077000F8B5324E324D96F900202B881341DC0734
:1007800053D4304C94F900300B2B0EDC298841FAFD
:1007900003F2D00702D52EE0D2072BD401335BB28F
:1007A0000C2B41FA03F2F7D1237027480268C2F5F7
:1007B000922101F5787140F2DB53994217DD4EF634
:1007C00060238B42A8BF0B461A44204902600E6882
:1007D0001F4D204A1C4F334442F6A3760B602E6017
:1007E0000368934202D900233B602370F8BD40F2B6
:1007F000DC53E9E72370184A0121D05C00F070F95E
:1008000094F90030104A1549104831F81350116816
:1008100033702944116002680D492A44013342F6BD
:10082000A37502600D602370F8BD0B4B0021985C2E
:1008300000F056F90C233370A3E700BFF806FF1F42
:100840004410FF1F4610FF1F4010FF1F0C600340A5
:1008500000600340DF9304006410FF1F4C10FF1F73
:1008600000B5064A036812885B6883B001A9ADF839
:1008700004200222984703B05DF804FB68330000AF
:10088000F0B507468BB0002A33D0012A08BF0A22F0
:1008900051B3212400E0F4B2B1FBF2F502FB1511D3
:1008A000C8B2092900F1300198BFC8B20AA988BFAF
:1008B0003730214488BFC0B201F8240C661E294697
:1008C000002DE8D133B1013CE4B20AAB23442D2220
:1008D00003F8242C3B6801AA11195B683846C4F15F
:1008E000220298470BB0F0BD30228DF8252021243C
:1008F000E8E70368C9B21B6898470BB0F0BD00BFBA
:100900000029BABF49422D2300230A22FFF7B8BFAE
:1009100008B5FFF7ABFDFFF755FE01F009FBFAE75D
:1009200008B5104C08E0236859050DD423681A0552
:100930000FD42368DB0411D423685803F3D500F0E7
:100940004FFB23685905F1D501F0DAFC23681A053D
:10095000EFD501F06BFD2368DB04EDD501F0FCFD64
:10096000EAE700BF3480044008B5FFF7D9FF00BFB5
:10097000014B10221A80704700200540704700BFCD
:10098000094908B50B6830B16A461844A2F500520F
:10099000904202D20860184608BD01F0FBFF0C230C
:1009A00003604FF0FF3008BDFC06FF1FF0B44D1E82
:1009B0002E46002400E00134B0FBF2F302FB1300EA
:1009C000092800F130078ABF3730F8B2C0B206F804
:1009D000010F1846002BEED10A1953704CB1107854
:1009E00015F8016F28700133E01A834202F801699B
:1009F000F5DB0846F0BC704710B4114B53F83020BB
:100A000092F8804234B1012379B182F880305DF8E8
:100A1000044B704703EBC0035B681A6851B922F0BE
:100A200002021A605DF8044B704782F800315DF8ED
:100A3000044B704742F003021A605DF8044B7047A4
:100A40006C3300001C4A02EBC00301295B6811D023
:100A500004291BD052F83000002280F8802229B1EE
:100A6000022920D0032922D01A6070474FF48072E7
:100A70001A60704752F830004FF4A27280F880126A
:100A80001A601A6822F020021A60704752F830107B
:100A90004FF4A272012081F880021A601A6842F0B5
:100AA00020021A60704740F203121A6070474FF438
:100AB00081721A60704700BF6C33000030B4054B80
:100AC000054D064C002210211A602A602060196032
:100AD00030BC704714D0034004D0034000D0034022
:100AE0003F2801D8FFF788BF704700BF3F2801D8D3
:100AF000FFF7A8BF704700BF2DE9F843054672B65F
:100B0000204F214B214A1B683C68126862B6520193
:100B100002D5322B88BF013495B3C3F5EA331C4E9E
:100B2000DFF86490DFF86480BF334FF47A72A6FB7D
:100B3000031302FB04F404EB931472B6D9F800100B
:100B40003A68D8F800E062B6C1F5EA33BF33A6FBD5
:100B500003031EF0806FC4EB93134FF47A7002D03E
:100B6000322988BF013200FB0233B3F57A7F04D308
:100B7000013D05D004F57A74DFE701F0D9F9DCE72F
:100B8000BDE8F8837010FF1F18E000E004ED00E0FE
:100B900089888888F8B53E4B3E49DFF818C13E4E3B
:100BA0003E4ADFF814E13E4D3E4C3F4F4FF00060AF
:100BB00018604FF0805018604FF0005018604FF0F0
:100BC000804018604FF00040186000200860282323
:100BD0004EF6FF71CCF80010CEF8003033600EF501
:100BE000012E13602B60236005F500253B6004F5A2
:100BF0000024B36207F50027936206F5012602F58B
:100C000001220EF1100E05F6E87504F6E87407F5FA
:100C10007F67103220362B602360CEF800303B60B7
:100C200013603360214EBB61936109223260A7F5E6
:100C3000002706F58056203F083638603160BB60DB
:100C4000F36047F8042C06F5FD2607F5FE2706F2AB
:100C5000FC76043730603960B360FB6046F8042CE2
:100C60000836C7F8FC0F06F6FC76114831602B6099
:100C70002360026001F0C4FA1920FFF73DFF00F085
:100C800017FF40F21310BDE8F840FFF735BF00BF73
:100C900004E100E004800340148003401C80034012
:100CA000248003402C8003403480034000800340B4
:100CB00000900B40088003400C80034001EBC10111
:100CC000490001E0013917D00378002BFAD101E087
:100CD000013911D00378002BFAD030B472B61C4D14
:100CE0001C4A1D4B12682C681B6862B65B0107D555
:100CF000322A05D9013403E000207047013924D09D
:100D00000378002BFAD172B6124B134819682B687E
:100D1000006862B6400102D5322988BF01330F480E
:100D2000C2F5EA32BF32C1F5EA31A0FB0252BF314F
:100D3000A0FB010192094FF47A70C2EB911200FB03
:100D4000142200FB032030BC7047002030BC7047E9
:100D50007010FF1F18E000E004ED00E0898888882B
:100D600001EBC101490001E0013917D00378002BE4
:100D7000FAD001E0013911D00378002BFAD130B458
:100D800072B61C4D1C4A1D4B12682C681B6862B65B
:100D90005B0107D5322A05D9013403E000207047F2
:100DA000013924D00378002BFAD072B6124B1348C5
:100DB00019682B68006862B6400102D5322988BFE5
:100DC00001330F48C2F5EA32BF32C1F5EA31A0FB68
:100DD0000252BF31A0FB010192094FF47A70C2EBBD
:100DE000911200FB142200FB032030BC704700204E
:100DF00030BC70477010FF1F18E000E004ED00E009
:100E0000898888883F280DD8074B53F8300021B9CE
:100E1000114600F50070FFF7A3BF114600F5007002
:100E2000FFF74CBF002070476C330000431E032BBC
:100E300014D872B60A4951F8230068B170B4094C4D
:100E4000058834F81320466841F82360521B24F8C3
:100E5000132062B670BC704762B6704700207047BE
:100E6000CC10FF1FC414FF1F013803280BD872B623
:100E7000074B53F8203043B100205B680130002B52
:100E8000FBD162B67047002070471846F9E700BFF3
:100E90002011FF1F30B472B62B4A13781D0706D5F8
:100EA0002A4B196A002936D0996A002941D0537813
:100EB0001C0706D5254B196C00293ED0996C0029DA
:100EC00039D09378190705D5204B196E002936D0F3
:100ED000996E89B1D3781B0707D51C4BD3F88020B6
:100EE0007AB3D3F8882011213AB162B6184B0022A8
:100EF0001A7030BC00F08CBE0D21154C154D2278B7
:100F000043F8315003EBC1030830013A58602270B6
:100F100062B630BC704704220D4C0F4D217843F867
:100F2000325003EBC20308304A1E5860227062B68A
:100F3000EFE70521E1E70921DFE70822ECE70C22D2
:100F4000EAE71022E8E700BF943500000000FF1F29
:100F50004911FF1FC800400088004000431E032BBA
:100F60001DD81B4A400140F0100030B4104472B646
:100F7000184CE25C032A1BD8DFE802F002121517B6
:100F800003220D88E25410F0080F14BFC8238823F1
:100F900043EA054308310360416062B630BC7047E4
:100FA00008300222EDE70522EBE708300422E8E7EB
:100FB000094A52F8230038B1084A52F82300416028
:100FC00042F8231062B6E9E742F82310034AF7E734
:100FD0000000FF1F5811FF1F2011FF1F3011FF1FBE
:100FE0002DE9F04FDFF80CB3DFF80CA387B044E035
:100FF000AB4F4FEA930807EBC809013ED9F804202C
:1010000003F00803F6B2A2F1080003F0FF04002B7E
:1010100040F0028157F838301B0C99B222F8081CB6
:10102000002B00F0F0809F4B22F8064C42F8044C55
:1010300053F82620002A00F0C5829B4D55F8263033
:1010400058609A4C45F8260034F81630194424F8B4
:10105000161000F0BDFD002800F0AD82944A954BBB
:1010600019F0080F00F1080018BF1346C9F8040072
:1010700047F8383008238BF800309BF80040E4B282
:1010800061071AD58C4B1B78A3B18C490A7802F002
:10109000FF0322B1013BDBB20B7003B900BE8849EC
:1010A0000A7802F0FF032AB1013BDBB20B70002B80
:1010B00000F0578204238BF8003004F0080303F09B
:1010C000FF02002B00F0CC809AF80030DBB21E0942
:1010D0008ED19C08DFF8C89159F8342009EBC4017F
:1010E000C2F38302013A49680C2A00F28880DFE8E3
:1010F00002F07C7C86868686868647868686070002
:101100000868704D4A68704F704E286081B240F296
:101110008160674B6A604FF0010E0022814249F8FE
:1011200034303A60C9F81020C9F8182086F800E079
:101130005B4C00F2E380B1F5D06F80F04683B1F5EF
:10114000817F00F0FC8200F28D82802900F077839D
:10115000822940F0FA82A98801F07F01042900F277
:10116000F4825B485B4C890008442270627002780C
:10117000930740F1588484F800E04FF0020E42E3F8
:10118000514F3A6832B3544B504E54491888347812
:101190000D784028864645F0020828BF4FF0400EE3
:1011A000002C84F001043470CEEB00000CBF8824C6
:1011B000C82409EBC80680B285F0010544EA0E4454
:1011C0007260188049F8384072440D70002800F0B1
:1011D00045813A603B4B1A88B2F5A06F0FD10021D0
:1011E0009A7859703E4B1A7009E0364A108842F2DC
:1011F0002102904200F037812D4A49F83420394AC3
:101200000123137036E72A4A2A4B19F0080F18BF3A
:10121000134647F838302DE700F0FAFC324A3349DC
:1012200052F82630002B00F0D18158688C5D42F8CE
:10123000260003F10802C9F80420032C05D8DFE8D2
:1012400004F02C02292602228A551A8819F0080F68
:101250000CBF8823C82343EA024347F8383009E724
:10126000E00700F18181210600F1F281A20706D595
:101270001F4A204913780220DBB213700870E3067E
:1012800002D51C4B10221A7007B0BDE8F08F042263
:101290008A55DAE705228A55D7E703228A55D4E72B
:1012A0000000FF1FCC10FF1F7810FF1FC414FF1F8A
:1012B000C8004000880040005411FF1FDD10FF1FD0
:1012C0005C11FF1F4011FF1F7410FF1FDC10FF1F78
:1012D000C02007404C11FF1F8810FF1F4811FF1F3F
:1012E00098200740942007402011FF1F5811FF1F2E
:1012F00088200740802007409020074042F22100CC
:10130000814200F02A8100F2D880B1F5086F00F028
:101310007682B1F5106F40F01882226AB349A8783E
:101320000870120600F13A83D9F82820B049130654
:1013300000F10C83D9F83020AD49150600F1018386
:10134000D9F83820AA49140600F1F682D9F84020CD
:10135000A749100600F14A83D9F84820A44912068B
:1013600000F13F83D9F85020A149130600F13483DE
:10137000D9F858209E49150600F12983D9F8602034
:101380009B49140600F11E83D9F86820984910067D
:1013900000F11383D9F870209549120600F10883F3
:1013A000D9F878209249130600F1FD82D9F88020FF
:1013B0008F49150600F13183D9F888208C4914062D
:1013C00000F12583D9F890208949100600F119838E
:1013D000D9F898208649120600F10D838548864A7F
:1013E000864901908648874D874C049700230596CF
:1013F000029580460F4616461D460394306828B174
:10140000446800F005FC2046002CF9D1002333602D
:10141000029B38681A46002342F8253028B14468F8
:1014200000F0F6FB2046002CF9D100223A60019A28
:1014300098F800301146002241F8042B039A0191DC
:10144000023B4FF0000122F81510032B00F22B8114
:10145000DFE813F07001250170012501BEF1400F96
:1014600018BF0022B5E6694A0D78487815705070AB
:101470008D78C8789570D07010680D7915718628B0
:101480004D7989795571917100F09B816049614E68
:101490000A78307882F00105002842F002020D70CF
:1014A0000CBF8821C82149F8321009EBC20280F034
:1014B00001000021307051609EE642F221208142FD
:1014C00040F0CB81544B554C5549A8781D68256098
:1014D000CDF804E00870002002908046844604465F
:1014E0004B490D7845F0020E09EBCE030393019BA7
:1014F000002B039B5C600CBF8824C82444EA0803CB
:1015000085F0010449F83E3032700C70DFF8E0E0FD
:10151000404BDFF8FC80002840F01E81BCF1400FFA
:101520001BD144F0020C09EBCC03029CDFF8C0E0B5
:101530005C60002A40F02681020442F088029DF897
:1015400004304EF83C20044433700D70234640288C
:1015500003D10020334A3B601080334A01231370CB
:101560004DE600F0C1FCA5E5214B2F4828491A6142
:101570004FF0020E80F800E02C4F0A702C491960E1
:1015800099602C4E2C4D2D4C9A610D213970FF2104
:101590003170DFF8B8E029702270294D294A8EF8A1
:1015A00000109F27012406F8047C5D600470DA6057
:1015B00007B0BDE8F08F244A47F8380013780133AC
:1015C000137057E543F826000E4D3AE58B5D032B6B
:1015D00000F2F08001A252F823F000BF7510000065
:1015E0007510000099160000931600005411FF1F9B
:1015F0000000FF1F3011FF1FCC10FF1F2011FF1F25
:101600005811FF1F7810FF1FC414FF1FCC14FF1FB9
:101610004811FF1FDC10FF1F7010FF1FD414FF1FA5
:101620006C11FF1F8810FF1F94200740C020074047
:10163000880040008820074080200740982007400D
:101640008C10FF1FE010FF1F4911FF1F8C20074067
:10165000C149C24B80220D2008701A70A2077FF585
:101660000EAE05E640F20232914240F0EE80A988CB
:1016700001F07F01042968D86A88002A65D1B6483C
:10168000CDF804E089000844017841F002010170BE
:1016900021E701238B55EDE400238B55EAE44FF05D
:1016A000010388F800300135042D06F1040607F126
:1016B000040708F101087FF4A1AEA94CA94B2278D8
:1016C000A94D049F059E002129701A70130700F18F
:1016D00005816278A549DFF8A0820A7010074FF0F3
:1016E0000001C9F83010C9F8381000F1E080A049B5
:1016F000A2780A700021C9F85010C9F858101107D3
:10170000DFF8748200F10181E2789A499A4C0A70FC
:1017100000211207C9F87010C9F8781000F1B080E4
:1017200033780193002183F00102C9F89010C9F8C1
:101730009810D0E64FF0000388F80030B3E7A9888E
:1017400001F07F01042940F28D80834A0F2313703A
:101750008A4A0123137052E540287FF6E2AE44F036
:1017600002040EEBC401029E4E60BAB19DF8041053
:10177000834A19703346403888F8005040334EF899
:101780003420E7E69DF8043033700204029B0D70AC
:1017900042F0C80203444EF83C20D8E69DF80410FD
:1017A0001970029B774A88F80050403840334EF851
:1017B0003420CFE619F0080F0CBF022303238B550A
:1017C00058E4714A0F21117060E6704A5468002C89
:1017D000BBD06888B5F804E003E00C325468002CF4
:1017E000B3D013888342F8D153887345F5D1000AEA
:1017F00003280CBF94F800E0B2F808E003E0644A64
:10180000644C12782270E888704580F03F8162490C
:101810000D784028844645F0020E28BF4FF0400C5A
:1018200004EB0C0309EBCE02029301235460CCEBD2
:1018300000004FEA0C4800220193C8245EE6554C94
:101840004FF0020E22706270DDE7B1F5A06F7FF4F9
:101850007CAF0123002201933DE642F22132914206
:10186000F7D072E76A88002A7FF46FAF3A48CDF864
:1018700004E089000844017821F0020101702AE6A1
:1018800000F0A6F9002800F0EF8008303D4AC4F8C7
:101890008400C4F8802000F09BF9002800F0DE806E
:1018A0000830374AC9F88C00C9F8882038E700F0BA
:1018B0008FF9002800F0C0800830324AC8F8440090
:1018C000C8F8402000F084F9002800F0AF8008300C
:1018D0002B4AC9F84C00C9F8482008E700F078F90D
:1018E000002800F0CD800830264AC9F82400C9F845
:1018F000202000F06DF9002800F0BC800830204A5C
:10190000C9F82C00C9F82820E3E600F061F90028A6
:1019100000F09E8008301B4AC8F86400C8F86020B8
:1019200000F056F9002800F08D800830144AC9F8FC
:101930006C00C9F86820E7E6C86B083800F068F961
:1019400004E5486B083800F063F9F9E4C86A083820
:1019500000F05EF9EEE400BFC020074080200740A1
:1019600094350000C42007404911FF1FC8200740DC
:10197000CC200740D02007400000FF1F94200740E4
:10198000C800400088004000DD10FF1F98350000AF
:101990005411FF1F4C11FF1F4811FF1F606A0838C8
:1019A00000F036F9C0E4C86F083800F031F9FDE402
:1019B000486F083800F02CF9F2E4C86E083800F0DF
:1019C00027F9E7E4486E083800F022F9DCE4C86D36
:1019D000083800F01DF9D1E4486D083800F018F916
:1019E000C6E4C86C083800F013F9BBE4486C08384A
:1019F00000F00EF9B0E4D1F89C00083800F008F9C6
:101A0000ECE4D1F89400083800F002F9E0E4D1F8F1
:101A10008C00083800F0FCF8D4E4D1F884000838D1
:101A200000F0F6F8C8E44FF0020EECE62A78C9F8A8
:101A3000480001322A705AE62A78C8F8400001327C
:101A40002A703FE72A78C9F8680001322A705BE6FD
:101A50002A78C8F8600001322A7061E72A78C9F84C
:101A6000880001322A705BE62A78C4F880000132CF
:101A70002A7010E72A78C9F8280001322A7028E66F
:101A80002A78C9F8200001322A7032E7BEF1400FEF
:101A9000F44628BF4FF0400C04EB0C0302930123E3
:101AA000CCEB0E004FEA0C480022019318E500BF72
:101AB0002DE9F04100F030FF2F4C304B3048DFF87B
:101AC000D880304F304D314EDFF8D0C0DFF8D0E055
:101AD00000221A605A609A60DA601A615A619A614B
:101AE000DA611A625A629A62DA621A635A639A6314
:101AF000DA631A645A649A64DA641A655A659A65F4
:101B0000DA651A665A669A66DA661A675A679A67D3
:101B1000DA67C3F880202168C3F8842041F480216B
:101B20002160016841F040710160C3F3072188F82A
:101B3000001004F52834C3F307411B0E3970CC3470
:101B40002B7000F12040FF238CF80030104D8EF8F0
:101B5000003000F6041033700E49012308F8083CE9
:101B6000702622704FF40014102207F82C3C2E70BF
:101B700004600A70BDE8F081348004400000FF1F5B
:101B800000D80040B0200740B42007401020074094
:101B900035E400E0082107409C20074080200740F2
:101BA0008820074000F0A4B800F07CB800F056B8D8
:101BB00000F090B800F06CB900F046B90846114644
:101BC00000F0B2B8084600F033B900BF704700BF5C
:101BD00072B60D480268B2FA82F30B2B10DC4FF09C
:101BE0000041D94022EA0102026062B6074803EBD5
:101BF000C303DB00C2180021C1501046516070477A
:101C000062B60020704700BF1007FF1F9803FF1F38
:101C10000D4B0E4AC31AA2FB03231B090B2B0CD836
:101C20000B4A127852B972B60A484FF00041026866
:101C300021FA03F31A43026062B67047064A12782B
:101C4000002AF0D0FFF726B99803FF1F398EE3383A
:101C50004911FF1F1007FF1F5411FF1F38B50F4D0B
:101C6000286878B143880288C118013393420C7AFE
:101C700002D24380204638BDFFF7CAFF002320462A
:101C80002B6038BD064B1B782BB10320FFF7CEF835
:101C900028600028E6D14FF0FF3038BD6811FF1FE3
:101CA0005411FF1F10B5094C206818B1438818441F
:101CB000007A10BD064B1B782BB10320FFF7B6F856
:101CC00020600028F2D14FF0FF3010BD6811FF1FD7
:101CD0005411FF1F044B054A1B6890881BB11A88DA
:101CE0005B88D31A184470476811FF1FC414FF1F84
:101CF0000B4B1B789BB110B50A4C206848B1FFF71D
:101D000087FF002303202360FFF790F830B1FFF72F
:101D10007FFF0320FFF78AF80028F8D110BD704735
:101D20005411FF1F6811FF1F2DE9F04FDFF8F890E5
:101D300083B0012289F80020019169B3DFF8EC80BB
:101D4000364F019E8346D8F80000B0B3344D448826
:101D5000C4F14001B14228BF314604EB010E00221C
:101D60001FFA8EFE2A70761AA0F802E000F108022F
:101D700051B1013C224459441BF8014B02F8014F78
:101D80008B45F9D1B0F802E0BEF13F0F0BD8254AE0
:101D900005211170002ED6D10198002389F800305A
:101DA00003B0BDE8F08F4022028001460420FFF717
:101DB000D5F80022C8F80020E9E73A782AB3184D90
:101DC0004DF2E9044FF0010A07E0013C16D02A78F1
:101DD000A2B900F0ADF83A78BAB10420FFF744F8A0
:101DE0000728F2D889F800A0FFF7F2FEC8F8000033
:101DF0000028ACD10C4B013C1870E8D101234FF006
:101E0000FF302B7003B0BDE8F08F00234FF0FF30A0
:101E100089F8003003B0BDE8F08F00BF5411FF1FF8
:101E20006411FF1F5C11FF1F5D11FF1F6011FF1F79
:101E300000B583B002AB012103F8010D1846FFF78E
:101E400073FF03B05DF804FB38B50E4D0E4C2868E7
:101E50000123237028B1408800232370C0F1400083
:101E600038BD0A4B1B7813B90020207038BD042000
:101E7000FEF7FAFF0728F7D8FFF7AAFE2860002828
:101E8000E9D1F1E76011FF1F5D11FF1F5411FF1F22
:101E9000F8B5114B1B788BB1104E114D34680127EA
:101EA0002F7064B10F4A6388002717702146238082
:101EB0000420FFF753F8376000232B70F8BDFFF7BD
:101EC00087FE084B28B1014604201C70FFF746F836
:101ED000F2E71F70F0E700BF5411FF1F6011FF1FF2
:101EE0005D11FF1F5C11FF1F38B50E4B1B7873B9D6
:101EF0000D4C216861B103F0FF054B880B80042075
:101F0000FFF72CF8256038BD084B01221A7038BD48
:101F1000FFF75EFE0028F7D00146BDE838400420F8
:101F2000FFF71CB85D11FF1F6011FF1F5C11FF1F41
:101F300038B52C4C237803B138BD01232370FFF74B
:101F4000C9FE002842D100F0CBF900283BD100F0B7
:101F50005DFA002834D100F0EFFA70BB00F068FBA6
:101F600040BB00F0E1FB10BB00F05AFCE0B90023DD
:101F70002370EFF30583002BDED1EFF3108172B6EF
:101F8000194B186828B3194C227812BB45691D609B
:101F9000012323700DB3AA6101B962B6002545770C
:101FA000836898472570C7E700F028F9DFE700F05D
:101FB00023F9D9E700F01EF9D3E700F019F9CDE7CE
:101FC00000F014F9C7E700F00FF9C0E7FFF7FEFDD6
:101FD000B9E70029B0D162B638BD054B1D600029B4
:101FE000DCD1DAE76D11FF1F8011FF1F8411FF1F85
:101FF0007C11FF1F10B4EFF3108272B6437F33B928
:10200000017F012908D0032910D00123437702B9A9
:1020100062B65DF8044B7047114C2168A1B11149BB
:1020200043610B68836108605861EEE70E4C2168DC
:1020300081B10E4943610B688361086058610C4BA4
:102040004FF080511960E0E7064B416181612060EB
:102050001860DAE7054B4161816120601860EEE7A6
:102060008011FF1F7C11FF1F7011FF1F7411FF1FD4
:1020700004ED00E010B4047F4160022CC26003D084
:102080005DF8044BFFF7B6BF83685DF8044B184753
:1020900070B5EFF3108272B60C4C206880B10C4E14
:1020A00000254369236073B19D6102B962B645772B
:1020B00083689847EFF3108272B620680028F0D149
:1020C00002B962B670BD3360EFE700BF7011FF1F49
:1020D0007411FF1FFFF7DCBF184A30B41468002CDE
:1020E00027D0036821688B420ED2CB1A002184606E
:1020F000C1602360E06010600223037530BC70474C
:1021000011688B42144608D3A2685B1A0360002A48
:10211000F6D18260C460A060EEE7D268C2608460DD
:10212000E060C568CB1A0222A8602360027530BC4B
:1021300070478460C4601060DEE700BF7811FF1F45
:10214000F8B5224E34682CB32368002B3AD1204FC7
:102150001D4604E03468ECB12368002B32D1A3683B
:1021600003B1DD6020693360036825751B68BB42DD
:1021700021D1037F4560022BC46020D0FFF73AFFD6
:102180006368002BE6D023602046FFF7A5FF346884
:10219000002CE1D1EFF3108372B60E4A00211068D3
:1021A000116003B962B628B18468FFF795FF204635
:1021B0000028F9D1F8BD224600219847E0E783685E
:1021C0009847DDE7013B2360E4E700BF7811FF1F7C
:1021D000752000008811FF1F024A13680133136045
:1021E000FFF7AEBF7010FF1F704700BF704700BF02
:1021F000704700BF704700BF704700BF704700BF07
:1022000030B42948294A2A4B2A4D6024E121047020
:1022100011701B78284C082B30D00A2B27482849EE
:1022200037D00C2B0CBF35225D2212232A6023608D
:1022300002600B60234B24491B78244ABBB1012365
:102240000B601360224B23491B78234A012B26D9AC
:10225000042B0FD9082B1ED9102B94BF862387235C
:102260000B6013601D4B01221A7030BC70470B606D
:102270001360E7E784230B601360F3E700F58E201B
:102280000F490830212213232A60236002600B606B
:10229000D0E73922F7E785230B601360E2E780235C
:1022A0000B601360DEE700BF0040074001400740BD
:1022B0001407FF1F08B003400CB0034008B00B40E8
:1022C0000CB00B408D11FF1F20B0034020B00B401D
:1022D0001507FF1F24B0034024B00B408C11FF1FD3
:1022E000054A064B10781B78C0B2DBB2984238BF63
:1022F0004030C01A704700BF9411FF1F9511FF1F97
:10230000F0B4384B1A7912F0300F2CD072B6997D98
:1023100001F0FF0200293DD062B6334F33493878CF
:102320000D78334E1C46C0B2EDB2431C402BE17910
:1023300028BF0023AB4202F1FF32C9B21CBFF154E7
:10234000184612F0FF02F0D12A4B1B68C2B23A7055
:102350004BB1A84236BFC5F14005401B40192728A4
:10236000C4BF01221A701F49CA78D2B2150616D40A
:1023700052060DD51B4B1B795B0609D51E4B1F4919
:102380001B6800220A7003B11A70164B3C22DA70E7
:10239000F0BC70474022D9795A7462B6E3E70B79F2
:1023A0001C06E5D5164B174E1C783378E4B2DBB229
:1023B0009C420ED0144D01E0A3420AD00133402BC1
:1023C00028BF00230879E85CC0B2C871087D0728DF
:1023D000F2D9DBB2034933700B79180644BF7C2372
:1023E000CB70C5E700A006409411FF1F9511FF1F99
:1023F000D811FF1F9011FF1F1C12FF1F1812FF1F83
:102400002012FF1F1912FF1F9811FF1F054A064BCC
:1024100010781B78C0B2DBB2984238BF4030C01A87
:10242000704700BF9412FF1F2912FF1FF0B4384BF2
:102430001A7912F0300F2CD072B6997D01F0FF029C
:1024400000293DD062B6334F334938780D78334E8A
:102450001C46C0B2EDB2431C402BE17928BF0023DB
:10246000AB4202F1FF32C9B21CBFF154184612F060
:10247000FF02F0D12A4B1B68C2B23A704BB1A8429E
:1024800036BFC5F14005401B40192728C4BF0122B3
:102490001A701F49CA78D2B2150616D452060DD545
:1024A0001B4B1B795B0609D51E4B1F491B6800227D
:1024B0000A7003B11A70164B3C22DA70F0BC7047F8
:1024C0004022D9795A7462B6E3E70B791C06E5D548
:1024D000164B174E1C783378E4B2DBB29C420ED018
:1024E000144D01E0A3420AD00133282B28BF00235A
:1024F0000879E85CC0B2C871087D0728F2D9DBB260
:10250000034933700B79180644BF7C23CB70C5E7B1
:1025100000B006409412FF1F2912FF1F5412FF1F24
:102520002412FF1F9812FF1F2812FF1F9C12FF1F6B
:102530009512FF1F2C12FF1F054A064B10781B78BF
:10254000C0B2DBB2984238BF4030C01A704700BFFB
:10255000A412FF1FA512FF1F30B42B4B1A7994064B
:102560001FD52A48DA790378294901333F2B0978A6
:10257000C8BF00238B42D2B203D0264CD9B2E2545A
:102580000170254A116861B1244A1278D2B293428F
:1025900036BFC2F140029B1A9B18272BC4BF0123F0
:1025A0000B70194AD378DBB2180611D45A060DD530
:1025B000154B1B795B0609D5194B1A491B6800227C
:1025C0000A7003B11A70104B2C22DA7030BC7047BD
:1025D00011790906EAD5144910480C780178C9B276
:1025E0008C420DD04A1C272A84BF00210A460F4D79
:1025F000054C98BFD1B2AA5CD2B2E2710170D5E7A6
:102600006C21D170D2E700BF00C00640A412FF1FAA
:10261000A512FF1FD012FF1FA012FF1F1113FF1FD3
:102620001413FF1F1013FF1F1813FF1FA812FF1F03
:10263000054A064B10781B78C0B2DBB2984238BF0F
:102640004030C01A704700BF2013FF1F2113FF1F27
:1026500030B42B4B1A7994061FD52A48DA790378BF
:10266000294901333F2B0978C8BF00238B42D2B2DE
:1026700003D0264CD9B2E2540170254A116861B1E9
:10268000244A1278D2B2934236BFC2F140029B1A5A
:102690009B18272BC4BF01230B70194AD378DBB2D8
:1026A000180611D45A060DD5154B1B795B0609D5B2
:1026B000194B1A491B6800220A7003B11A70104B9B
:1026C0002C22DA7030BC704711790906EAD514491A
:1026D00010480C780178C9B28C420DD04A1C272AC8
:1026E00084BF00210A460F4D054C98BFD1B2AA5CA9
:1026F000D2B2E2710170D5E76C21D170D2E700BF90
:1027000000D006402013FF1F2113FF1F4C13FF1F93
:102710001C13FF1F8D13FF1F9013FF1F8C13FF1F30
:102720009413FF1F2413FF1F054A064B10781B78D4
:10273000C0B2DBB2984238BF4030C01A704700BF09
:102740009C13FF1F9D13FF1F30B42B4B1A79940667
:102750001FD52A48DA790378294901333F2B0978B4
:10276000C8BF00238B42D2B203D0264CD9B2E25468
:102770000170254A116861B1244A1278D2B293429D
:1027800036BFC2F140029B1A9B18272BC4BF0123FE
:102790000B70194AD378DBB2180611D45A060DD53E
:1027A000154B1B795B0609D5194B1A491B6800228A
:1027B0000A7003B11A70104B2C22DA7030BC7047CB
:1027C00011790906EAD5144910480C780178C9B284
:1027D0008C420DD04A1C272A84BF00210A460F4D87
:1027E000054C98BFD1B2AA5CD2B2E2710170D5E7B4
:1027F0006C21D170D2E700BF00A00E409C13FF1FD8
:102800009D13FF1FC813FF1F9813FF1F0914FF1FFD
:102810000C14FF1F0814FF1F1014FF1FA013FF1F2D
:10282000054A064B10781B78C0B2DBB2984238BF1D
:102830004030C01A704700BF1814FF1F1914FF1F43
:1028400030B42B4B1A7994061FD52A48DA790378CD
:10285000294901333F2B0978C8BF00238B42D2B2EC
:1028600003D0264CD9B2E2540170254A116861B1F7
:10287000244A1278D2B2934236BFC2F140029B1A68
:102880009B18272BC4BF01230B70194AD378DBB2E6
:10289000180611D45A060DD5154B1B795B0609D5C0
:1028A000194B1A491B6800220A7003B11A70104BA9
:1028B0002C22DA7030BC704711790906EAD5144928
:1028C00010480C780178C9B28C420DD04A1C272AD6
:1028D00084BF00210A460F4D054C98BFD1B2AA5CB7
:1028E000D2B2E2710170D5E76C21D170D2E700BF9E
:1028F00000B00E401814FF1F1914FF1F4414FF1FCF
:102900001414FF1F8514FF1F8814FF1F8414FF1F5A
:102910008C14FF1F1C14FF1F72B6184A184B19495C
:102920001160702280211A701A46197013781B06E4
:10293000FCD510B5144B84B0186862B6134B144C18
:10294000984298BF00EB800001A998BF40000A227E
:10295000FEF72CF801A92046002311F8012B0133C2
:102960003AB10A2B20F8022FF7D11623237004B0B6
:1029700010BD5B00DBB2237004B010BD0400024048
:1029800000000240000007410C0002407F969800C2
:10299000A407FF1F014B1868704700BFE80BFF1F1B
:1029A00070B50F4E0F4D761BB61018BF002405D022
:1029B000013455F8043B9847A642F9D10A4E0B4D15
:1029C000761B00F015FEB61018BF002406D00134A7
:1029D00055F8043B9847A642F9D170BD70BD00BFC1
:1029E000FC350000FC35000008360000FC35000016
:1029F000024B0146186800F003B800BFE80BFF1F48
:102A00002DE9F04F01F10B05162D83B0064640F27B
:102A10009F8035F0070500F1BF80A94200F2BC801D
:102A200000F0A6FAB5F5FC7FC0F09C826B0A00F0BE
:102A3000BA80042B00F28381A80900F1390E4FEA15
:102A40004E033830C44F07EB8303A3F108015C68E1
:102A5000A14207D1ACE0002A80F2AC80E468A14238
:102A600000F0A680636823F003035A1B0F2AF2DDEF
:102A7000B9493C6901F1080E744500F0B3816368FF
:102A800023F003035A1B0F2A00F39981002AC1F88F
:102A900014E0C1F810E080F29E80B3F5007F80F072
:102AA0006781DB0803F1010C01229B1002FA03F39A
:102AB0004A6851F83C80C4F8088001EBCC091A43FD
:102AC000A9F10803E3604A6041F83C40C8F80C40B3
:102AD000831001249C40944200F28A80144206D163
:102AE00020F003006400144200F10400FAD007EB68
:102AF000C009CC468046DCF80C108C4507D173E148
:102B0000002A80F28181C9688C4500F06D814B6894
:102B100023F003035A1B0F2AF2DD0C46D1F80CC038
:102B200054F8088F4B1945F001054D6042F0010142
:102B3000C8F80CC03046CCF808807B613B61C3F814
:102B40000CE0C3F808E059609A5000F013FA1FE057
:102B5000102921D800F00CFA1025062302207E4F00
:102B600007EB8303A3F108025C68944200F04581FF
:102B70006368E168A56823F00303234430465A687C
:102B8000E96042F001028D605A6000F0F3F9083408
:102B9000204603B0BDE8F08F00240C2320463360AC
:102BA00003B0BDE8F08F80234FF0400E3F2049E78F
:102BB00070465DE72344E1685A68A56842F0010267
:102BC000E96030468D605A6000F0D4F90834204640
:102BD00003B0BDE8F08F234430465A6842F001024A
:102BE0005A6000F0C7F90834204603B0BDE8F08F02
:102BF000BC68636823F00308A84504D3C5EB080349
:102C00000F2B00F38C80554BDFF860911A68D9F8D0
:102C1000003001332A4404EB080A00F0608102F519
:102C200080520F3222F47F6222F00F0211463046AA
:102C3000019200F0A1F9B0F1FF3F8346019A00F044
:102C40005881824500F2FC80454B1968DA451144F1
:102C5000196000F05381D9F80000DFF810E101306D
:102C60001BBFCAEB0B0A5144CEF800B019601BF031
:102C7000070100F01781C1F10800C1F580518344BC
:102C800008315A44C2F30B02C2EB010949463046EF
:102C9000019300F071F9431C019B00F03F81CBEBE5
:102CA00000024A4442F001021968C7F808B04944DA
:102CB000BC42CBF804201960DFF8A49016D0B8F11C
:102CC0000F0F40F2FD806268A8F10C0323F00703A8
:102CD000E01802F001024FF0050E1A430F2B62605C
:102CE000C0F804E0C0F808E000F21C811D4BBC688D
:102CF0001A68914288BF19601B4B1A68914262683A
:102D000088BF196022F003029542A2EB050301D8A7
:102D10000F2B04DC304600F02DF9002438E762194F
:102D200043F0010345F0010565603046BA60536029
:102D300000F020F90834204603B0BDE8F08F142BD2
:102D400071D9542B00F2A480280B00F16F0E4FEACA
:102D50004E036E3076E600BFEC0BFF1F9814FF1F8A
:102D60009C14FF1F9414FF1F9014FF1FF80FFF1FE8
:102D70005A0A042A5ED9142A00F2B38002F15C01D7
:102D800049005B3207EB810C57F82110DFF8DC813A
:102D9000ACF1080C8C4500F088804A6822F00302F0
:102DA000934202D289688C45F7D1D1F80CC07A6879
:102DB000C4F80CC0A160CCF80840CC6088E6631968
:102DC00042F0010745F00105656030464B610B613B
:102DD000C3F80CE0C3F808E05F609A50083400F0D4
:102DE000C9F8D5E64A6873E608F1010818F0030F40
:102DF0000CF1080C7FF47FAE30E0DC68A34208BF22
:102E000002303FF435AEB3E60B440C465A68C9684D
:102E100054F8085F42F001025A603046E9608D6064
:102E200000F0A8F8B4E603F15C0E03F15B004FEA92
:102E30004E0307E69A0902F1390149003832A1E749
:102E4000BC424A4B3FF400AF9C68626822F0030228
:102E50005AE759F80839994540F0828010F0030F7D
:102E600000F1FF30F5D17B6823EA04037B60640046
:102E70009C423FF6BDAE002C3FF4BAAE1C42404629
:102E80007FF435AE64001C4200F10400FAD02EE657
:102E9000B3F5AA7F18D8E80B00F1780E4FEA4E037D
:102EA0007730CFE54FF48051EBE60121D8F80430BC
:102EB000921001FA02F21A43C8F80420614677E73B
:102EC0000123CBF8043025E740F25452934220D836
:102ED000A80C00F17D0E4FEA4E037C30B2E51032B3
:102EE000A4E6542A26D81A0B02F16F0149006E326B
:102EF00048E7BC68626822F0030205E7CAF30B00EA
:102F000000287FF4A8AE4244BB6842F001025A6038
:102F1000ECE6FE234FF07F0E7E2093E501224FF07A
:102F20000009C1E604F10801304600F0A9F8D9F81B
:102F30000010DBE6B2F5AA7F05D8DA0B02F17801C2
:102F4000490077321EE740F254518A4205D89A0C64
:102F500002F17D0149007C3214E7FE217E2211E757
:102F60007B6884E7E808431C5B00F8E5EC0BFF1F77
:102F7000704700BF704700BF38B5074C00230546B7
:102F800008462360FDF7FCFC431C00D038BD2368D5
:102F9000002BFBD02B6038BDD814FF1F024B13B1A0
:102FA000024800F005B8704700000000BD2F000087
:102FB000002301461A46184600F04AB938B5074DB5
:102FC000074C2C1BA41005D0013C55F8043D984734
:102FD000002CF9D1BDE8384000F016BB000000001D
:102FE00000000000F8B5234F0C460646FFF7C0FF6F
:102FF000BB685D6825F00305291B01F6EF7121F41C
:103000007F6121F00F01A1F58054B4F5805F07DBEB
:1030100000213046FFF7B0FFBB682B44984204D034
:103020003046FFF7A7FF0020F8BD61423046FFF7AA
:10303000A3FF01300DD0104BBA6819682D1B45F065
:1030400001053046091B55601960FFF793FF012009
:10305000F8BD00213046FFF78FFFBA68831A0F2BA7
:10306000DEDD064C0449246843F00103001B536075
:103070000860D5E7EC0BFF1F9C14FF1FF80FFF1F24
:10308000002945D02DE9F0410D468046FFF770FF3D
:1030900055F8047C6A4927F00103A5F10804E218F9
:1030A0008E685068B24220F0030062D0FE07506084
:1030B0000BD455F8087CE41B01F1080EA568754592
:1030C0003B446FD0E768EF60BD6015186D68ED0791
:1030D00042D543F001026260E350B3F5007F18D29D
:1030E000DB085A1C4D6851F83270A76001209B1014
:1030F00000FA03F301EBC2001D430838E0604D60A5
:1031000041F83240FC604046BDE8F041FFF732BF75
:1031100070475A0A042A53D89A0902F139077F00E6
:1031200002F1380501EB870051F82720444908389F
:1031300090424DD0516821F003018B4202D2926837
:103140009042F7D1D068E060A2608460D4604046CD
:10315000BDE8F041FFF70EBF95683A4FBD4203440A
:103160003FD0D068E86043F0010285606260E350C0
:10317000B3E7FF07034407D455F8082CA41A1344F7
:10318000A068E268C26090602F4A126843F00100B4
:10319000934260608C60B6D32C4B40461968FFF7B1
:1031A00021FFB0E711184968C90744D49168D26873
:1031B000CA60034443F0010091606060E350A2E7FD
:1031C000142A17D802F15C077F0002F15B05A9E71A
:1031D000AA104B68012505FA02F213434B60024620
:1031E000B1E743F001024C610C61E560A5606260EB
:1031F000E35088E7542A06D81A0B02F16F077F00C4
:1032000002F16E058EE7B2F5AA7F06D8DA0B02F15D
:1032100078077F0002F1770584E740F2545082423C
:1032200006D89A0C02F17D077F0002F17C0579E750
:10323000FE277E2576E743F001026260E35062E7F5
:10324000EC0BFF1FF40BFF1FF40FFF1F9814FF1F61
:103250002DE9F047254C2568D5F8484106468846B3
:1032600092469946C4B360681F2817DC431C76B1A8
:1032700004EB80050122C5F888A0D4F888118240AB
:103280001143022EC4F88811C5F808911ED00230EF
:10329000636044F820800020BDE8F087144B03B33E
:1032A0004FF4C870FFF7A4FB0446D0B1D5F84831FD
:1032B000002780E88800C5F8484138460123C4F853
:1032C0008871C4F88C71002EE1D0D1E7D4F88C114C
:1032D0000A43C4F88C21DAE705F5A674C5F848411D
:1032E000C1E74FF0FF30BDE8F08700BFEC350000CC
:1032F000F129000020524320436F6E74726F6C20DE
:103300004D6F64652000000056616C756520436850
:1033100031203D200000000056616C756520436837
:1033200032203D200000000056616C756520436826
:1033300033203D200000000056616C756520436815
:1033400034203D200000000056616C756520436804
:1033500035203D200000000056616C7565204368F3
:1033600036203D20000000000D0AFFFF4008FE430C
:1033700040A004404408FE4344A004400018FE431B
:1033800000C004403000FE43309004403400FE434F
:10339000349004401C18FE431CC004401018FE4327
:1033A00010C004400818FE4308C004400C18FE4337
:1033B0000CC004400C10FE430CB004401010FE433F
:1033C00010B004401810FE4318B004401C10FE4317
:1033D0001CB004401410FE4314B004400418FE4313
:1033E00004C004400010FE4300B004400008FE4347
:1033F00000A004400408FE4304A004400C08FE435F
:103400000CA004400808FE4308A004401418FE4322
:1034100014C004401818FE4318C004400410FE43B2
:1034200004B004400810FE4308B004406820FE4386
:1034300068D004401400FE43149004403800FE435A
:10344000389004403C00FE433C9004404000FE4362
:10345000409004404808FE4348A004404C08FE4306
:103460004CA004402808FE4328A004402C08FE433A
:103470002CA004406020FE4360D004406420FE4342
:1034800064D004402010FE4320B004402410FE43CA
:1034900024B004402810FE4328B004402C10FE4302
:1034A0002CB004404400FE43449004407000FE43AE
:1034B000709004407400FE43749004406800FE4322
:1034C000689004405008FE4350A004405808FE4352
:1034D00058A004405C08FE435CA004405408FE432E
:1034E00054A004402018FE4320C004402418FE438A
:1034F00024C004401008FE4310A004401408FE43FA
:1035000014A004403818FE4338C004403418FE4369
:1035100034C004403018FE4330C004403C18FE4321
:103520003CC004402C18FE432CC004402820FE431D
:1035300028D004402C20FE432CD004400020FE4321
:1035400000D004400420FE4304D004400820FE4381
:1035500008D004400C20FE430CD004401020FE4351
:1035600010D004401420FE4314D00440000000009A
:1035700000000000C51B0000BD1B0000B91B0000BF
:10358000B51B0000B11B0000AD1B0000A91B000013
:10359000A51B000000151915000100001807FF1FEA
:1035A00012000000000200004407FF1F430000005B
:1035B00000030000A007FF1F000000000103090432
:1035C0002C07FF1F00000000020309048807FF1FEB
:1035D0000000000003030904A407FF1F000000000F
:1035E000000000000000000000000000C007FF1FF6
:1035F000F8B500BFF8BC08BC9E4670479D2F000080
:0836000035040000490600003A
:04360800F8B500BF52
:10360C000C000000DC14FF1F7435000000000000EB
:10361C00E803000000000000FFFFFFFF0A040000A9
:10362C001201100102000040C01683047602010250
:10363C000301000018035400650065006E00730060
:10364C0079006400750069006E006F000902430088
:10365C00020100C03209040000010202010005242D
:10366C0000100105240101010424020605240600B2
:10367C00010705820310004009040100020A000042
:10368C00000705030240000007058402400000000B
:10369C0016035500530042002000530065007200D1
:1036AC00690061006C000000040309040C030000B5
:1036BC0000000000000000000000000000000000FE
:1036CC00000000000000000000000000AC0AFF1F1A
:1036DC00140BFF1F7C0BFF1F0000000000000000FC
:1036EC0000000000000000000000000000000000CE
:1036FC0000000000000000000000000000000000BE
:10370C0000000000000000000000000000000000AD
:10371C00000000000000000000000000000000009D
:10372C00000000000000000000000000000000008D
:10373C00000000000000000000000000000000007D
:10374C00000000000000000000000000000000006D
:10375C00000000000000000000000000000000005D
:10376C00000000000000000000000000000000004D
:10377C0001000000000000000E33CDAB34126DE6EA
:10378C00ECDE05000B000000000000000000000053
:10379C00000000000000000000000000000000001D
:1037AC00000000000000000000000000000000000D
:1037BC0000000000000000000000000000000000FD
:1037CC0000000000000000000000000000000000ED
:103AFC00C007FF1F0000000000000000EC0BFF1FC0
:103B0C00EC0BFF1FF40BFF1FF40BFF1FFC0BFF1F35
:103B1C00FC0BFF1F040CFF1F040CFF1F0C0CFF1FE2
:103B2C000C0CFF1F140CFF1F140CFF1F1C0CFF1F91
:103B3C001C0CFF1F240CFF1F240CFF1F2C0CFF1F41
:103B4C002C0CFF1F340CFF1F340CFF1F3C0CFF1FF1
:103B5C003C0CFF1F440CFF1F440CFF1F4C0CFF1FA1
:103B6C004C0CFF1F540CFF1F540CFF1F5C0CFF1F51
:103B7C005C0CFF1F640CFF1F640CFF1F6C0CFF1F01
:103B8C006C0CFF1F740CFF1F740CFF1F7C0CFF1FB1
:103B9C007C0CFF1F840CFF1F840CFF1F8C0CFF1F61
:103BAC008C0CFF1F940CFF1F940CFF1F9C0CFF1F11
:103BBC009C0CFF1FA40CFF1FA40CFF1FAC0CFF1FC1
:103BCC00AC0CFF1FB40CFF1FB40CFF1FBC0CFF1F71
:103BDC00BC0CFF1FC40CFF1FC40CFF1FCC0CFF1F21
:103BEC00CC0CFF1FD40CFF1FD40CFF1FDC0CFF1FD1
:103BFC00DC0CFF1FE40CFF1FE40CFF1FEC0CFF1F81
:103C0C00EC0CFF1FF40CFF1FF40CFF1FFC0CFF1F30
:103C1C00FC0CFF1F040DFF1F040DFF1F0C0DFF1FDD
:103C2C000C0DFF1F140DFF1F140DFF1F1C0DFF1F8C
:103C3C001C0DFF1F240DFF1F240DFF1F2C0DFF1F3C
:103C4C002C0DFF1F340DFF1F340DFF1F3C0DFF1FEC
:103C5C003C0DFF1F440DFF1F440DFF1F4C0DFF1F9C
:103C6C004C0DFF1F540DFF1F540DFF1F5C0DFF1F4C
:103C7C005C0DFF1F640DFF1F640DFF1F6C0DFF1FFC
:103C8C006C0DFF1F740DFF1F740DFF1F7C0DFF1FAC
:103C9C007C0DFF1F840DFF1F840DFF1F8C0DFF1F5C
:103CAC008C0DFF1F940DFF1F940DFF1F9C0DFF1F0C
:103CBC009C0DFF1FA40DFF1FA40DFF1FAC0DFF1FBC
:103CCC00AC0DFF1FB40DFF1FB40DFF1FBC0DFF1F6C
:103CDC00BC0DFF1FC40DFF1FC40DFF1FCC0DFF1F1C
:103CEC00CC0DFF1FD40DFF1FD40DFF1FDC0DFF1FCC
:103CFC00DC0DFF1FE40DFF1FE40DFF1FEC0DFF1F7C
:103D0C00EC0DFF1FF40DFF1FF40DFF1FFC0DFF1F2B
:103D1C00FC0DFF1F040EFF1F040EFF1F0C0EFF1FD8
:103D2C000C0EFF1F140EFF1F140EFF1F1C0EFF1F87
:103D3C001C0EFF1F240EFF1F240EFF1F2C0EFF1F37
:103D4C002C0EFF1F340EFF1F340EFF1F3C0EFF1FE7
:103D5C003C0EFF1F440EFF1F440EFF1F4C0EFF1F97
:103D6C004C0EFF1F540EFF1F540EFF1F5C0EFF1F47
:103D7C005C0EFF1F640EFF1F640EFF1F6C0EFF1FF7
:103D8C006C0EFF1F740EFF1F740EFF1F7C0EFF1FA7
:103D9C007C0EFF1F840EFF1F840EFF1F8C0EFF1F57
:103DAC008C0EFF1F940EFF1F940EFF1F9C0EFF1F07
:103DBC009C0EFF1FA40EFF1FA40EFF1FAC0EFF1FB7
:103DCC00AC0EFF1FB40EFF1FB40EFF1FBC0EFF1F67
:103DDC00BC0EFF1FC40EFF1FC40EFF1FCC0EFF1F17
:103DEC00CC0EFF1FD40EFF1FD40EFF1FDC0EFF1FC7
:103DFC00DC0EFF1FE40EFF1FE40EFF1FEC0EFF1F77
:103E0C00EC0EFF1FF40EFF1FF40EFF1FFC0EFF1F26
:103E1C00FC0EFF1F040FFF1F040FFF1F0C0FFF1FD3
:103E2C000C0FFF1F140FFF1F140FFF1F1C0FFF1F82
:103E3C001C0FFF1F240FFF1F240FFF1F2C0FFF1F32
:103E4C002C0FFF1F340FFF1F340FFF1F3C0FFF1FE2
:103E5C003C0FFF1F440FFF1F440FFF1F4C0FFF1F92
:103E6C004C0FFF1F540FFF1F540FFF1F5C0FFF1F42
:103E7C005C0FFF1F640FFF1F640FFF1F6C0FFF1FF2
:103E8C006C0FFF1F740FFF1F740FFF1F7C0FFF1FA2
:103E9C007C0FFF1F840FFF1F840FFF1F8C0FFF1F52
:103EAC008C0FFF1F940FFF1F940FFF1F9C0FFF1F02
:103EBC009C0FFF1FA40FFF1FA40FFF1FAC0FFF1FB2
:103ECC00AC0FFF1FB40FFF1FB40FFF1FBC0FFF1F62
:103EDC00BC0FFF1FC40FFF1FC40FFF1FCC0FFF1F12
:103EEC00CC0FFF1FD40FFF1FD40FFF1FDC0FFF1FC2
:103EFC00DC0FFF1FE40FFF1FE40FFF1F0000020089
:043F0C00FFFFFFFFB5
:00000001FF
